S01100004750494F5F546573742E73726563E5
S11300000C942A000C9434000C9434000C943400A6
S11300100C9434000C9434000C9434000C9434008C
S11300200C9434000C9434000C9434000C9434007C
S11300300C9434000C9434000C9434000C9434006C
S11300400C9434000C9434000C9434000C9434005C
S11300500C94340011241FBECFE5D8E0DEBFCDBF21
S11300600E9493000C947F010C940000813051F0A5
S113007018F0823069F0089540E064E082E00E9464
S1130080C200089540E068E082E00E94C200089542
S113009040E068E083E00E94C2000895813051F09E
S11300A018F0823069F0089541E064E082E00E9433
S11300B02B01089541E060E882E00E942B0108953D
S11300C041E068E083E00E942B010895813051F003
S11300D018F0823069F0089540E064E082E00E9404
S11300E02B01089540E060E882E00E942B0108950E
S11300F040E068E083E00E942B010895813049F0DC
S113010018F0823059F0089564E082E00E9467019B
S1130110089560E882E00E946701089568E083E042
S11301200E946701089580E090E00E94360081E01B
S113013090E00E94360082E090E00E94360080E069
S113014090E00E944E002FEF83ED90E32150804019
S11301509040E1F700C0000080E090E00E9466005B
S113016081E090E00E947E002FEF83ED90E3215028
S113017080409040E1F700C0000082E090E00E94DF
S11301807E00DDCF8130F9F030F08230A1F1833090
S113019009F449C00895413041F018F0423051F05B
S11301A008958AB3682B6ABB08958AB3609568235F
S11301B06ABB08958AB3962F909589238ABB8BB323
S11301C0682B6BBB0895413041F018F0423051F078
S11301D0089587B3682B67BB089587B36095682338
S11301E067BB089587B3962F9095892387BB88B3FF
S11301F0682B68BB0895413041F018F0423051F04B
S1130200089584B3682B64BB08958AB3609568230A
S11302106ABB089584B3962F9095892384BB85B3D4
S1130220682B65BB0895413041F018F0423051F01D
S1130230089582B3682B62BB089582B360956823E6
S113024062BB089582B3962F9095892382BB82B3B3
S1130250682B62BB0895813099F028F08230E9F070
S1130260833041F10895442331F0413079F58BB363
S1130270682B6BBB08958BB3609568236BBB0895A3
S1130280442331F0413011F588B3682B68BB0895DD
S113029088B36095682368BB0895442331F04130E6
S11302A0A9F485B3682B65BB089585B3609568236D
S11302B065BB0895442331F0413041F482B3682B87
S11302C062BB089582B36095682362BB0895813050
S11302D051F028F0823059F0833069F008958BB3DF
S11302E068276BBB089588B3682768BB089585B3F6
S11302F0682765BB089582B3682762BB0895F894A4
S1050300FFCF29
S9030000FC
